:100000000C9434000C9448000C9446000C94460068
:100010000C9446000C9446000C9446000C94460048
:100020000C9446000C9446000C9446000C94460038
:100030000C9446000C9446000C9446000C94460028
:100040000C9446000C9446000C9446000C94460018
:100050000C9446000C9446000C9446000C94460008
:100060000C9446000C94460011241FBECFEFD8E03C
:10007000DEBFCDBF21E0A0E0B1E001C01D92A23003
:10008000B207E1F70E9453000C9489000C94000021
:100090008F939F9381E090E0909301018093000102
:1000A0009F918F911895259A549A52985A9A5C98D4
:1000B000E89AE09A8091690082608093690080915B
:1000C00069008E7F80936900789490E25C9820911B
:1000D0000001309101012130310571F45C9A2FEF5C
:1000E00033ED80E3215030408040E1F700C0000054
:1000F000109201011092000185B1892785B92FEF77
:1001000033ED80E3215030408040E1F700C0000033
:06011000DDCFF894FFCFE3
:00000001FF
