:100000000C9434000C9440000C943E000C943E0080
:100010000C943E000C943E000C943E000C943E0068
:100020000C943E000C943E000C943E000C943E0058
:100030000C943E000C943E000C943E000C943E0048
:100040000C943E000C943E000C943E000C943E0038
:100050000C943E000C943E000C943E000C943E0028
:100060000C943E000C943E0011241FBECFEFD8E04C
:10007000DEBFCDBF0E944D000C946C000C940000BC
:100080008F938FB78F939F938BB190E189278BB913
:100090009F918F918FBF8F911895259A549A52985E
:1000A0005A9AE89AE09A8091690082608093690088
:1000B000809169008E7F80936900789490E285B189
:1000C000892785B92FEF33ED80E321503040804000
:0C00D000E1F700C00000F3CFF894FFCF70
:00000001FF
