:100000000C9434000C943E000C943E000C943E0082
:100010000C943E000C943E000C943E000C943E0068
:100020000C943E000C943E000C943E000C943E0058
:100030000C943E000C943E000C943E000C943E0048
:100040000C943E000C943E000C943E000C943E0038
:100050000C943E000C943E000C943E000C943E0028
:100060000C943E000C943E0011241FBECFEFD8E04C
:10007000DEBFCDBF0E9440000C9467000C940000CE
:1000800084B1806384B92D9A2C982FEF83E294EF8A
:10009000215080409040E1F700C000002D982C983E
:1000A0002FEF8BE792E9215080409040E1F700C0AC
:1000B00000002D982C9A2FEF83E294EF215080407E
:1000C0009040E1F700C0000090E080E00895F894CF
:0200D000FFCF60
:00000001FF
