:100000000C9434000C943E000C943E000C943E0082
:100010000C943E000C943E000C943E000C943E0068
:100020000C943E000C943E000C943E000C943E0058
:100030000C943E000C943E000C943E000C943E0048
:100040000C943E000C943E000C943E000C943E0038
:100050000C943E000C943E000C943E000C943E0028
:100060000C943E000C943E0011241FBECFEFD8E04C
:10007000DEBFCDBF0E9479000C94D5000C94000027
:1000800084B1866084B982EA809380008AE180939B
:10009000810080E29EE4909387008093860008951B
:1000A00028EC829FC00111249093890080938800DE
:1000B00090938B0080938A0008958AB18C638AB9EB
:1000C00008955A9A5B985C9A5D9808955A985B9A3D
:1000D0005C985D9A08955A985B9A5C9A5D98089529
:1000E0005A9A5B985C985D9A08958BB1837C8BB922
:1000F00008950E945D000E94400080EB96E390937B
:1001000089008093880090938B0080938A000E94DE
:1001100061002FEF87EA91E6215080409040E1F79F
:1001200000C000000E9475002FEF83ED90E3215086
:1001300080409040E1F700C000000E9466002FEF71
:1001400087EA91E6215080409040E1F700C000002E
:100150000E9475002FEF83ED90E321508040904086
:10016000E1F700C000000E946B002FEF8DE399E4DF
:10017000215080409040E1F700C000000E947000D4
:100180002FEF8DE399E4215080409040E1F700C0CB
:1001900000000E9475002FEF87EA91E62150804011
:0E01A0009040E1F700C00000B2CFF894FFCF0E
:00000001FF
