:100000000C9434000C943E000C943E000C943E0082
:100010000C943E000C943E000C943E000C943E0068
:100020000C943E000C943E000C943E000C943E0058
:100030000C943E000C943E000C943E000C943E0048
:100040000C943E000C943E000C943E000C943E0038
:100050000C943E000C943E000C943E000C943E0028
:100060000C943E000C943E0011241FBECFEFD8E04C
:10007000DEBFCDBF0E9440000C946A000C940000CB
:10008000569A84B5836084BD84B5806884BD85B587
:10009000836085BD90E080E087BD2FEF31EE44E0C6
:1000A000215030404040E1F700C00000019681152A
:1000B00021E0920789F78FEF87BD3FEF41EE94E093
:1000C000315040409040E1F700C000008150813342
:0800D00099F7FFCFF894FFCF70
:00000001FF
