:100000000C9434000C9449000C9449000C94490061
:100010000C9449000C9449000C9449000C9449003C
:100020000C9449000C9449000C9449000C9449002C
:100030000C9449000C9449000C9449000C9449001C
:100040000C9449000C9449000C9449000C9449000C
:100050000C9449000C9449000C9449000C944900FC
:100060000C9449000C94490011241FBECFEFD8E036
:10007000DEBFCDBF11E0A0E0B1E0ECEBFBE002C0E1
:1000800005900D92A234B107D9F70E945A010C9441
:10009000DC050C9400001092B90088E48093B8004D
:1000A00084E08093BC00089584EA8093BC00809132
:1000B000BC0087FFFCCF089584E98093BC000895BD
:1000C0008093BB0084E88093BC008091BC0087FFD4
:1000D000FCCF0895CF93C82F0E94540088E70E9458
:1000E000600080E00E9460008C2F0E94600084E924
:1000F0008093BC00CF910895CF93C82F0E945400E5
:1001000088E70E94600080E40E9460008C2F0E94BB
:10011000600084E98093BC00CF910895CF93DF9372
:10012000C0E0D4E080E00E947C002197D9F7DF9105
:10013000CF9108952FEF81EE94E0215080409040C0
:10014000E1F700C000008EEA0E946A0080E20E948F
:100150006A0080E10E946A0080EB0E946A0088ECDD
:100160000E946A0080E00E946A0080E10E946A00AA
:1001700080E40E946A0081E80E946A008FE70E9482
:100180006A0081EA0E946A0086EA0E946A0088EAA0
:100190000E946A008FE30E946A0083ED0E946A0059
:1001A00080E00E946A0085ED0E946A0080EF0E9454
:1001B0006A0089ED0E946A0082E20E946A008AED6C
:1001C0000E946A0082E10E946A008BED0E946A0030
:1001D00080E20E946A008DE80E946A0084E10E9429
:1001E0006A008FEA0E946A000C948E000F931F939E
:1001F000CF93DF9390ED980F9A30D0F4082E000C37
:10020000990BC09726E0289FE001299FD00D11246B
:10021000C050DF4F8E010A5F1F4F89910E947C0002
:100220000C171D07D1F7DF91CF911F910F91089502
:10023000C6E0D0E0843521F08A3311F0833431F404
:1002400080E00E947C002197D9F7EDCF80E00E94EA
:100250007C002197D9F7E7CFCF93DF93EC01899109
:10026000811103C0DF91CF9108950E94F600F7CF6E
:1002700080E480937C0087E880937A0008959091D1
:100280007C00907F8F70982B90937C008FE39FE190
:100290000197F1F700C0000080917A00806480939C
:1002A0007A0080917A0086FDFCCF80917800909151
:1002B00079000895CDB7DEB768970FB6F894DEBF22
:1002C0000FBECDBF0E9438010E944B000E949A00D1
:1002D0008CE3E82E81E0F82E8E010F5F1F4F80E047
:1002E0000E943F019C0150E040E02D8B3E8B4F8BE4
:1002F000588FCA01B9010E940B0220E030E040EAA9
:1003000050E46D8B7E8B8F8B988F6D897E898F8962
:10031000988D0E94710220E030E040E85AE36D8B36
:100320007E8B8F8B988F6D897E898F89988D0E94A7
:10033000710220E030E048EC52E46D8B7E8B8F8BB5
:10034000988F6D897E898F89988D0E9471026D8B3F
:100350007E8B8F8B988F6D897E898F89988D0E9477
:10036000D5017F936F93FF92EF921F930F930E949B
:10037000060380EB0E946A0080E00E946A0080E130
:100380000E946A00C8010E942C013FEF43ED50E338
:10039000315040405040E1F700C000000F900F90F6
:1003A0000F900F900F900F909ACF0E94DC016894ED
:1003B000B1110C946B0208950E94500288F09F576F
:1003C00098F0B92F9927B751B0F0E1F0660F771F79
:1003D000881F991F1AF0BA95C9F714C0B13091F06F
:1003E0000E946A02B1E008950C946A02672F782F88
:1003F0008827B85F39F0B93FCCF386957795679534
:10040000B395D9F73EF490958095709561957F4F9F
:100410008F4F9F4F0895E89409C097FB3EF4909545
:100420008095709561957F4F8F4F9F4F9923A9F0CD
:10043000F92F96E9BB279395F6958795779567955C
:10044000B795F111F8CFFAF4BB0F11F460FF1BC0A0
:100450006F5F7F4F8F4F9F4F16C0882311F096E933
:1004600011C0772321F09EE8872F762F05C06623E1
:1004700071F096E8862F70E060E02AF09A95660F9A
:10048000771F881FDAF7880F9695879597F9089553
:1004900057FD9058440F551F59F05F3F71F0479535
:1004A000880F97FB991F61F09F3F79F0879508951A
:1004B000121613061406551FF2CF4695F1DF08C039
:1004C000161617061806991FF1CF86957105610556
:1004D00008940895E894BB2766277727CB0197F9FE
:1004E00008950E9484020C94F5020E94E70238F0FD
:1004F0000E94EE0220F0952311F00C94DE020C9481
:10050000E40211240C946B020E94480270F3959F40
:10051000C1F3950F50E0551F629FF001729FBB27FA
:10052000F00DB11D639FAA27F00DB11DAA1F649F96
:100530006627B00DA11D661F829F2227B00DA11D49
:10054000621F739FB00DA11D621F839FA00D611DCF
:10055000221F749F3327A00D611D231F849F600DF0
:10056000211D822F762F6A2F11249F5750409AF019
:10057000F1F088234AF0EE0FFF1FBB1F661F771FA5
:10058000881F91505040A9F79E3F510580F00C9470
:10059000DE020C946B025F3FE4F3983ED4F3869541
:1005A00077956795B795F795E7959F5FC1F7FE2B10
:1005B000880F911D9695879597F9089597F99F67EC
:1005C00080E870E060E008959FEF80EC08950024DB
:1005D0000A941616170618060906089500240A94A8
:1005E00012161306140605060895092E0394000C2E
:1005F00011F4882352F0BB0F40F4BF2B11F460FFBD
:1006000004C06F5F7F4F8F4F9F4F0895AEE0B0E003
:10061000ECE0F3E00C94B3050D891E8986E08C8331
:100620001A8309838FEF9FE79E838D83AE01475E18
:100630005F4F6F89788DCE0101960E9429032F812B
:100640003885020F131FF80110822E96E4E00C94F7
:10065000CF05AFE0B0E0EFE2F3E00C94A5057C013C
:100660003B018A01DC0117961C921E921697139685
:100670008C9181FFC3C19AE0292EFE0131964F0172
:10068000D70113969C91F30193FD859193FF81917E
:100690003F01882309F448C1853239F493FD8591DF
:1006A00093FF81913F01853229F4B70190E00E94C8
:1006B0001705E6CFB12C412C512CBFE1B51538F010
:1006C0008B3209F188F4803201F1833221F157FC39
:1006D0003AC020ED280F2A3040F556FE1FC0B29CCC
:1006E000200D1124B22E06C08D3291F0803379F79F
:1006F000689450F8F30193FD859193FF81913F0138
:100700008111DBCF20C0689451F8689452F8F2CF81
:10071000689453F8EFCF689454F8ECCF429C200DC6
:100720001124422E689455F8E5CF8E3229F456FCF8
:10073000FBC0689456F8DECF8C3619F4689457F8ED
:10074000D9CF8836B9F2982F9F7D95549330C0F059
:100750008336A1F18337C1F1833509F05BC0D8013D
:10076000CD90DD908D016B2D70E056FC02C06FEFD7
:100770007FEFC6010E9401055C01689457F80AC02A
:100780000C5F1F4FEFE3E983AA24A394B12C64010B
:10079000E89457F853FC04C04A141B0409F018F5F8
:1007A000342CA114B10431F5332009F469CFB70119
:1007B00080E290E00E9417053A94F6CFD8018C9120
:1007C00089830E5F1F4FE0CFF801C190D1908F0158
:1007D0006B2D70E056FC02C06FEF7FEFC6010E94E8
:1007E0000C055C01D5CFB70180E290E00E941705AF
:1007F0004A94D2CFF60157FC859157FE81916F0143
:10080000B70190E00E94170531103A94B1E0AB1A9D
:10081000B108C7CF843619F0893609F074C0F801E1
:1008200057FE6AC061917191819191918F01E52D7F
:10083000EF76DE2E97FF09C09095809570956195B3
:100840007F4F8F4F9F4F6894D7F82AE030E0A40184
:100850000E944705C82EC818AC2C5D2CD6FE0CC0D3
:10086000E89450F8CB1440F4D4FE05C0D2FC03C089
:100870005D2D5E7E552EAB2C54FE98C0FE01EC0D16
:10088000F11D8081803309F08AC0652D697E562E66
:10089000752D7870372E53FC98C050FE92C0BC2C3A
:1008A000A41418F44C0CB42CBA1854FE94C0B7011C
:1008B00080E390E00E94170552FE09C088E790E0AF
:1008C00051FE02C088E590E0B7010E941705CB14E5
:1008D00008F48DC0CA94D12C8FEFC81AD80AC80C5E
:1008E000D91CD6018E916D01B70190E00E941705C9
:1008F0008C149D04B1F758CF61917191072E000CB3
:10090000880B990B93CFD52CE894D4F82AE030E0EB
:10091000853739F1F52DF97FDF2E8037A9F058F4AE
:100920008835A9F08F36D9F0F701868197812F9607
:10093000E2E10C94C1058837B9F7D4FE02C068948F
:10094000D2F820E130E00DC06894D4F8F6CF54FE20
:1009500003C02F2F2660D22E20E132E002C028E013
:1009600030E0F801D7FE15C041915191619171912C
:100970004C875D876E877F878F01A4016C857D859D
:100980008E859F850E944705C82EC818E894D7F821
:1009900063CF81919191AC0170E060E0E9CF52FCAE
:1009A00002C0A39475CFA394A39472CF852D8678AB
:1009B00009F46ECFF6CFB70180E290E00E941705F0
:1009C000A394A414C0F3312C70CF342C3A18A4147F
:1009D00008F46BCFF8CF852D867809F478CF8BE2B9
:1009E00051FE80E257FC8DE2B70190E06ECFB70177
:1009F00080E390E00E941705BA9469CF8FEF9FEFD4
:100A000096CFFC010590615070400110D8F7809599
:100A100090958E0F9F1F0895FC01615070400190CA
:100A20000110D8F7809590958E0F9F1F08950F9312
:100A30001F93CF93DF93182F092FEB018B8181FD3B
:100A400009C01FEF0FEF812F902FDF91CF911F91E2
:100A50000F91089582FF14C02E813F818C819D816A
:100A6000281739073CF4E881F981CF010196998371
:100A7000888310838E819F8101969F838E83E3CF2D
:100A8000E885F985812F0995892BA1F3DACFFA0141
:100A9000AA27283051F1203181F1E8946F936E7FBD
:100AA0006E5F7F4F8F4F9F4FAF4FB1E03ED0B4E0AE
:100AB0003CD0670F781F891F9A1FA11D680F791FEF
:100AC0008A1F911DA11D6A0F711D811D911DA11D00
:100AD00020D009F468943F912AE0269F1124301910
:100AE000305D3193DEF6CF010895462F4770405DAB
:100AF0004193B3E00FD0C9F7F6CF462F4F70405D5A
:100B00004A3318F0495D31FD4052419302D0A9F7B4
:100B1000EACFB4E0A6959795879577956795BA95AE
:100B2000C9F700976105710508959B01AC010A2E74
:100B300006945795479537952795BA95C9F7620F4B
:100B4000731F841F951FA01D08952F923F924F92EF
:100B50005F926F927F928F929F92AF92BF92CF924D
:100B6000DF92EF92FF920F931F93CF93DF93CDB756
:100B7000DEB7CA1BDB0B0FB6F894DEBF0FBECDBFCE
:100B800009942A88398848885F846E847D848C849F
:100B90009B84AA84B984C884DF80EE80FD800C81A8
:100BA0001B81AA81B981CE0FD11D0FB6F894DEBF8B
:0C0BB0000FBECDBFED010895F894FFCFFB
:100BBC003E5149453E0000427F4000004261514990
:100BCC0046002141454B31001814127F1000274577
:100BDC00454539003C4A494930000171090503007B
:100BEC00364949493600064949291E00543A2564BC
:020BFC004300B4
:00000001FF
