:100000000C9434000C943E000C943E000C943E0082
:100010000C943E000C943E000C943E000C943E0068
:100020000C943E000C943E000C943E000C943E0058
:100030000C943E000C943E000C943E000C943E0048
:100040000C943E000C943E000C943E000C943E0038
:100050000C943E000C943E000C943E000C943E0028
:100060000C943E000C943E0011241FBECFEFD8E04C
:10007000DEBFCDBF0E9450000C945A000C940000CB
:100080009C012150310908F4089516BC84B58E7F77
:1000900084BD85B5836085BDA89BFECFA89AF1CFAE
:1000A000259AC0E285B18C2785B980ED97E00E9442
:0800B0004000F8CFF894FFCFE7
:00000001FF
