:100000000C9434000C9449000C9449000C94490061
:100010000C9449000C9449000C9449000C9449003C
:100020000C9449000C9449000C9449000C9449002C
:100030000C9449000C9449000C9449000C9449001C
:100040000C9449000C9449000C9449000C9449000C
:100050000C9449000C9449000C9449000C944900FC
:100060000C9449000C94490011241FBECFEFD8E036
:10007000DEBFCDBF11E0A0E0B1E0EAE2F2E002C0F5
:1000800005900D92A630B107D9F70E94FB000C94A1
:1000900013010C9400002B9A85E08A95F1F700007B
:1000A0002B9808959BB19F709BB983FD5F9A82FD49
:1000B0005E9A81FD5D9A80FD5C9A0E944B008FE8FC
:1000C00091E00197F1F700C000000895CF93C82F89
:1000D000613089F42C9A8C2F82958F700E94520087
:1000E0008FE99FE00197F1F700C000008C2F8F701F
:1000F000CF910C9452002C98EECF61E00C946600E6
:1001000060E00C946600CF93DF93EC01899181113C
:1001100003C0DF91CF9108950E947D00F7CF2FEFAC
:1001200081EE94E0215080409040E1F700C0000053
:100130008AB1806F8AB984B1886184B983E00E94F2
:1001400052008FE19EE40197F1F700C0000083E0C8
:100150000E94520087E592E00197F1F700C000008D
:1001600083E00E94520087E592E00197F1F700C01A
:10017000000082E00E9452008FE39FE10197F1F7B7
:1001800000C0000088E20E94800088E00E94800099
:1001900081E00E9480008FED9EE20197F1F700C0A0
:1001A000000086E00E9480008CE00C94800081E0DA
:1001B0000E9480008FED9EE20197F1F700C00000E1
:1001C000089582E00E9480008FED9EE20197F1F792
:1001D00000C00000089586E00E9480008FED9EE23E
:1001E0000197F1F700C000000895811180E4860FA7
:1001F00080680C9480000E948F000E94D70070E0FD
:1002000060E090E080E00E94F5002FEF81EE94E046
:10021000215080409040E1F700C0000080E091E074
:0A0220000E948300FFCFF894FFCF87
:06022A0048656C6C6F00DA
:00000001FF
