:100000000C9434000C943E000C943E000C943E0082
:100010000C943E000C943E000C943E000C943E0068
:100020000C943E000C943E000C943E000C943E0058
:100030000C943E000C943E000C943E000C943E0048
:100040000C943E000C943E000C943E000C943E0038
:100050000C943E000C943E000C943E000C943E0028
:100060000C943E000C943E0011241FBECFEFD8E04C
:10007000DEBFCDBF0E946A000C947E000C9400008D
:100080009C012D9A2C982150310908F408958FE98C
:100090009FE00197F1F700C00000F5CF9C012D987B
:1000A0002C9A2150310908F408958FE99FE00197B7
:1000B000F1F700C00000F5CF9C012D982C9821503D
:1000C000310908F408958FE99FE00197F1F700C026
:1000D0000000F5CF84B1806384B988E893E10E9481
:1000E000400088EB9BE00E945C0088E893E10E945E
:1000F0004E0088EB9BE00E945C00EFCFF894FFCFAE
:00000001FF
