:100000000C9434000C943E000C943E000C943E0082
:100010000C943E000C943E000C943E000C943E0068
:100020000C943E000C943E000C943E000C943E0058
:100030000C943E000C943E000C943E000C943E0048
:100040000C943E000C943E000C943E000C943E0038
:100050000C943E000C943E000C943E000C943E0028
:100060000C943E000C943E0011241FBECFEFD8E04C
:10007000DEBFCDBF0E9440000C9463000C940000D2
:100080008091C2008F7B8093C2008091C200866005
:100090008093C20087E68093C4008091C10088608D
:1000A0008093C10081E49091C00095FFFCCF8093C4
:1000B000C6002FEF33ED90E3215030409040E1F740
:0A00C00000C00000F0CFF894FFCF5D
:00000001FF
